:0200000007fff8
:0200010007fff7
:0200020007fff6
:0200030007fff5
:0200040007fff4
:0200050007fff3
:0200060007fff2
:0200070007fff1
:0200080007fff0
:0200090007ffef
:02000a0007ffee
:02000b0007ffed
:02000c0007ffec
:02000d0007ffeb
:02000e0007ffea
:02000f0007feea
:0200100007fee9
:0200110007fee8
:0200120007fee7
:0200130007fee6
:0200140007fee5
:0200150007fee4
:0200160007fee3
:0200170007fee2
:0200180007fee1
:0200190007fde1
:02001a0007fde0
:02001b0007fddf
:02001c0007fdde
:02001d0007fddd
:02001e0007fddc
:02001f0007fddb
:0200200007fdda
:0200210007fcda
:0200220007fcd9
:0200230007fcd8
:0200240007fcd7
:0200250007fcd6
:0200260007fcd5
:0200270007fbd5
:0200280007fbd4
:0200290007fbd3
:02002a0007fbd2
:02002b0007fbd1
:02002c0007fad1
:02002d0007fad0
:02002e0007facf
:02002f0007face
:0200300007f9ce
:0200310007f9cd
:0200320007f9cc
:0200330007f9cb
:0200340007f8cb
:0200350007f8ca
:0200360007f8c9
:0200370007f8c8
:0200380007f7c8
:0200390007f7c7
:02003a0007f7c6
:02003b0007f7c5
:02003c0007f6c5
:02003d0007f6c4
:02003e0007f6c3
:02003f0007f5c3
:0200400007f5c2
:0200410007f5c1
:0200420007f5c0
:0200430007f4c0
:0200440007f4bf
:0200450007f4be
:0200460007f3be
:0200470007f3bd
:0200480007f3bc
:0200490007f2bc
:02004a0007f2bb
:02004b0007f1bb
:02004c0007f1ba
:02004d0007f1b9
:02004e0007f0b9
:02004f0007f0b8
:0200500007f0b7
:0200510007efb7
:0200520007efb6
:0200530007eeb6
:0200540007eeb5
:0200550007eeb4
:0200560007edb4
:0200570007edb3
:0200580007ecb3
:0200590007ecb2
:02005a0007ecb1
:02005b0007ebb1
:02005c0007ebb0
:02005d0007eab0
:02005e0007eaaf
:02005f0007e9af
:0200600007e9ae
:0200610007e8ae
:0200620007e8ad
:0200630007e7ad
:0200640007e7ac
:0200650007e6ac
:0200660007e6ab
:0200670007e6aa
:0200680007e5aa
:0200690007e5a9
:02006a0007e4a9
:02006b0007e3a9
:02006c0007e3a8
:02006d0007e2a8
:02006e0007e2a7
:02006f0007e1a7
:0200700007e1a6
:0200710007e0a6
:0200720007e0a5
:0200730007dfa5
:0200740007dfa4
:0200750007dea4
:0200760007dea3
:0200770007dda3
:0200780007dca3
:0200790007dca2
:02007a0007dba2
:02007b0007dba1
:02007c0007daa1
:02007d0007d9a1
:02007e0007d9a0
:02007f0007d8a0
:0200800007d89f
:0200810007d79f
:0200820007d69f
:0200830007d69e
:0200840007d59e
:0200850007d59d
:0200860007d49d
:0200870007d39d
:0200880007d39c
:0200890007d29c
:02008a0007d19c
:02008b0007d19b
:02008c0007d09b
:02008d0007cf9b
:02008e0007cf9a
:02008f0007ce9a
:0200900007cd9a
:0200910007cd99
:0200920007cc99
:0200930007cb99
:0200940007ca99
:0200950007ca98
:0200960007c998
:0200970007c898
:0200980007c897
:0200990007c797
:02009a0007c697
:02009b0007c597
:02009c0007c596
:02009d0007c496
:02009e0007c396
:02009f0007c296
:0200a00007c295
:0200a10007c195
:0200a20007c095
:0200a30007bf95
:0200a40007bf94
:0200a50007be94
:0200a60007bd94
:0200a70007bc94
:0200a80007bb94
:0200a90007bb93
:0200aa0007ba93
:0200ab0007b993
:0200ac0007b893
:0200ad0007b793
:0200ae0007b792
:0200af0007b692
:0200b00007b592
:0200b10007b492
:0200b20007b392
:0200b30007b292
:0200b40007b192
:0200b50007b191
:0200b60007b091
:0200b70007af91
:0200b80007ae91
:0200b90007ad91
:0200ba0007ac91
:0200bb0007ab91
:0200bc0007aa91
:0200bd0007aa90
:0200be0007a990
:0200bf0007a890
:0200c00007a790
:0200c10007a690
:0200c20007a590
:0200c30007a490
:0200c40007a390
:0200c50007a290
:0200c60007a190
:0200c70007a090
:0200c800079f90
:0200c900079e90
:0200ca00079e8f
:0200cb00079d8f
:0200cc00079c8f
:0200cd00079b8f
:0200ce00079a8f
:0200cf0007998f
:0200d00007988f
:0200d10007978f
:0200d20007968f
:0200d30007958f
:0200d40007948f
:0200d50007938f
:0200d60007928f
:0200d70007918f
:0200d80007908f
:0200d900078f8f
:0200da00078e8f
:0200db00078d8f
:0200dc00078c8f
:0200dd00078a90
:0200de00078990
:0200df00078890
:0200e000078790
:0200e100078690
:0200e200078590
:0200e300078490
:0200e400078390
:0200e500078290
:0200e600078190
:0200e700078090
:0200e800077f90
:0200e900077e90
:0200ea00077d90
:0200eb00077b91
:0200ec00077a91
:0200ed00077991
:0200ee00077891
:0200ef00077791
:0200f000077691
:0200f100077591
:0200f200077491
:0200f300077292
:0200f400077192
:0200f500077092
:0200f600076f92
:0200f700076e92
:0200f800076d92
:0200f900076b93
:0200fa00076a93
:0200fb00076993
:0200fc00076893
:0200fd00076793
:0200fe00076693
:0200ff00076494
:02010000076393
:02010100076293
:02010200076193
:02010300076093
:02010400075e94
:02010500075d94
:02010600075c94
:02010700075b94
:02010800075995
:02010900075895
:02010a00075795
:02010b00075695
:02010c00075496
:02010d00075396
:02010e00075296
:02010f00075196
:02011000074f97
:02011100074e97
:02011200074d97
:02011300074c97
:02011400074a98
:02011500074998
:02011600074898
:02011700074699
:02011800074599
:02011900074499
:02011a0007429a
:02011b0007419a
:02011c0007409a
:02011d00073e9b
:02011e00073d9b
:02011f00073c9b
:02012000073a9c
:0201210007399c
:0201220007389c
:0201230007369d
:0201240007359d
:0201250007349d
:0201260007329e
:0201270007319e
:0201280007309e
:02012900072e9f
:02012a00072d9f
:02012b00072ba0
:02012c00072aa0
:02012d000729a0
:02012e000727a1
:02012f000726a1
:020130000724a2
:020131000723a2
:020132000722a2
:020133000720a3
:02013400071fa3
:02013500071da4
:02013600071ca4
:02013700071aa5
:020138000719a5
:020139000718a5
:02013a000716a6
:02013b000715a6
:02013c000713a7
:02013d000712a7
:02013e000710a8
:02013f00070fa8
:02014000070da9
:02014100070ca9
:02014200070aaa
:020143000709aa
:020144000707ab
:020145000706ab
:020146000704ac
:020147000703ac
:020148000701ad
:020149000700ad
:02014a0006feaf
:02014b0006fdaf
:02014c0006fbb0
:02014d0006fab0
:02014e0006f8b1
:02014f0006f7b1
:0201500006f5b2
:0201510006f4b2
:0201520006f2b3
:0201530006f0b4
:0201540006efb4
:0201550006edb5
:0201560006ecb5
:0201570006eab6
:0201580006e9b6
:0201590006e7b7
:02015a0006e5b8
:02015b0006e4b8
:02015c0006e2b9
:02015d0006e1b9
:02015e0006dfba
:02015f0006ddbb
:0201600006dcbb
:0201610006dabc
:0201620006d9bc
:0201630006d7bd
:0201640006d5be
:0201650006d4be
:0201660006d2bf
:0201670006d0c0
:0201680006cfc0
:0201690006cdc1
:02016a0006cbc2
:02016b0006cac2
:02016c0006c8c3
:02016d0006c6c4
:02016e0006c5c4
:02016f0006c3c5
:0201700006c1c6
:0201710006c0c6
:0201720006bec7
:0201730006bcc8
:0201740006bbc8
:0201750006b9c9
:0201760006b7ca
:0201770006b6ca
:0201780006b4cb
:0201790006b2cc
:02017a0006b0cd
:02017b0006afcd
:02017c0006adce
:02017d0006abcf
:02017e0006a9d0
:02017f0006a8d0
:0201800006a6d1
:0201810006a4d2
:0201820006a3d2
:0201830006a1d3
:02018400069fd4
:02018500069dd5
:02018600069bd6
:02018700069ad6
:020188000698d7
:020189000696d8
:02018a000694d9
:02018b000693d9
:02018c000691da
:02018d00068fdb
:02018e00068ddc
:02018f00068bdd
:02019000068add
:020191000688de
:020192000686df
:020193000684e0
:020194000682e1
:020195000681e1
:02019600067fe2
:02019700067de3
:02019800067be4
:020199000679e5
:02019a000677e6
:02019b000675e7
:02019c000674e7
:02019d000672e8
:02019e000670e9
:02019f00066eea
:0201a000066ceb
:0201a100066aec
:0201a2000668ed
:0201a3000667ed
:0201a4000665ee
:0201a5000663ef
:0201a6000661f0
:0201a700065ff1
:0201a800065df2
:0201a900065bf3
:0201aa000659f4
:0201ab000657f5
:0201ac000655f6
:0201ad000654f6
:0201ae000652f7
:0201af000650f8
:0201b000064ef9
:0201b100064cfa
:0201b200064afb
:0201b3000648fc
:0201b4000646fd
:0201b5000644fe
:0201b6000642ff
:0201b700064000
:0201b800063e01
:0201b900063c02
:0201ba00063a03
:0201bb00063804
:0201bc00063605
:0201bd00063406
:0201be00063207
:0201bf00063008
:0201c000062e09
:0201c100062c0a
:0201c200062a0b
:0201c30006280c
:0201c40006260d
:0201c50006240e
:0201c60006220f
:0201c700062010
:0201c800061e11
:0201c900061c12
:0201ca00061a13
:0201cb00061814
:0201cc00061615
:0201cd00061416
:0201ce00061217
:0201cf00061018
:0201d000060e19
:0201d100060c1a
:0201d200060a1b
:0201d30006081c
:0201d40006061d
:0201d50006041e
:0201d60006021f
:0201d700060020
:0201d80005fd23
:0201d90005fb24
:0201da0005f925
:0201db0005f726
:0201dc0005f527
:0201dd0005f328
:0201de0005f129
:0201df0005ef2a
:0201e00005ed2b
:0201e10005eb2c
:0201e20005e92d
:0201e30005e62f
:0201e40005e430
:0201e50005e231
:0201e60005e032
:0201e70005de33
:0201e80005dc34
:0201e90005da35
:0201ea0005d737
:0201eb0005d538
:0201ec0005d339
:0201ed0005d13a
:0201ee0005cf3b
:0201ef0005cd3c
:0201f00005cb3d
:0201f10005c83f
:0201f20005c640
:0201f30005c441
:0201f40005c242
:0201f50005c043
:0201f60005bd45
:0201f70005bb46
:0201f80005b947
:0201f90005b748
:0201fa0005b549
:0201fb0005b34a
:0201fc0005b04c
:0201fd0005ae4d
:0201fe0005ac4e
:0201ff0005aa4f
:00000001FF
